{
  "contractName": "Crowdfunding",
  "abi": [
    {
      "anonymous": false,
      "inputs": [
        {
          "indexed": false,
          "internalType": "address",
          "name": "contractAddress",
          "type": "address"
        },
        {
          "indexed": false,
          "internalType": "address",
          "name": "projectStarter",
          "type": "address"
        },
        {
          "indexed": false,
          "internalType": "uint256",
          "name": "deadline",
          "type": "uint256"
        },
        {
          "indexed": false,
          "internalType": "uint256",
          "name": "goalAmount",
          "type": "uint256"
        }
      ],
      "name": "ProjectStarted",
      "type": "event"
    },
    {
      "inputs": [
        {
          "internalType": "string",
          "name": "projectId",
          "type": "string"
        },
        {
          "internalType": "uint256",
          "name": "durationInDays",
          "type": "uint256"
        },
        {
          "internalType": "uint256",
          "name": "amountToRaise",
          "type": "uint256"
        },
        {
          "internalType": "address",
          "name": "pk1",
          "type": "address"
        },
        {
          "internalType": "address",
          "name": "pk2",
          "type": "address"
        },
        {
          "internalType": "address",
          "name": "pk3",
          "type": "address"
        }
      ],
      "name": "startProject",
      "outputs": [],
      "stateMutability": "nonpayable",
      "type": "function"
    },
    {
      "inputs": [],
      "name": "returnAllProjects",
      "outputs": [
        {
          "internalType": "contract Project[]",
          "name": "",
          "type": "address[]"
        }
      ],
      "stateMutability": "view",
      "type": "function",
      "constant": true
    }
  ],
  "bytecode": "0x608060405234801561001057600080fd5b50612cf9806100206000396000f3fe60806040523480156200001157600080fd5b50600436106200003a5760003560e01c80636a9b523b146200003f57806385b6e28e146200005f575b600080fd5b6200005d600480360381019062000057919062000320565b62000081565b005b62000069620001a6565b60405162000078919062000531565b60405180910390f35b6000620000af6200009f62015180886200023690919063ffffffff16565b426200024e90919063ffffffff16565b9050600087338388888888604051620000c89062000266565b620000da979695949392919062000555565b604051809103906000f080158015620000f7573d6000803e3d6000fd5b5090506000819080600181540180825580915050600190039060005260206000200160009091909190916101000a81548173ffffffffffffffffffffffffffffffffffffffff021916908373ffffffffffffffffffffffffffffffffffffffff1602179055507fba7234dd8b8cc8ad4ba7e1d32f9071518d6de87bbe2b28e4ae0afaafa256f43181338489604051620001949493929190620004e4565b60405180910390a15050505050505050565b606060008054806020026020016040519081016040528092919081815260200182805480156200022c57602002820191906000526020600020905b8160009054906101000a900473ffffffffffffffffffffffffffffffffffffffff1673ffffffffffffffffffffffffffffffffffffffff1681526020019060010190808311620001e1575b5050505050905090565b60008183620002469190620006ea565b905092915050565b600081836200025e91906200068d565b905092915050565b6123cc80620008f883390190565b60006200028b620002858462000602565b620005d9565b905082815260208101848484011115620002aa57620002a9620008a3565b5b620002b7848285620007c5565b509392505050565b600081359050620002d081620008c3565b92915050565b600082601f830112620002ee57620002ed6200089e565b5b81356200030084826020860162000274565b91505092915050565b6000813590506200031a81620008dd565b92915050565b60008060008060008060c0878903121562000340576200033f620008ad565b5b600087013567ffffffffffffffff811115620003615762000360620008a8565b5b6200036f89828a01620002d6565b96505060206200038289828a0162000309565b95505060406200039589828a0162000309565b9450506060620003a889828a01620002bf565b9350506080620003bb89828a01620002bf565b92505060a0620003ce89828a01620002bf565b9150509295509295509295565b6000620003e9838362000481565b60208301905092915050565b62000400816200075f565b82525050565b62000411816200074b565b82525050565b6000620004248262000648565b6200043081856200066b565b93506200043d8362000638565b8060005b8381101562000474578151620004588882620003db565b975062000465836200065e565b92505060018101905062000441565b5085935050505092915050565b6200048c816200079d565b82525050565b60006200049f8262000653565b620004ab81856200067c565b9350620004bd818560208601620007d4565b620004c881620008b2565b840191505092915050565b620004de8162000793565b82525050565b6000608082019050620004fb600083018762000406565b6200050a602083018662000406565b620005196040830185620004d3565b620005286060830184620004d3565b95945050505050565b600060208201905081810360008301526200054d818462000417565b905092915050565b600060e082019050818103600083015262000571818a62000492565b9050620005826020830189620003f5565b620005916040830188620004d3565b620005a06060830187620004d3565b620005af608083018662000406565b620005be60a083018562000406565b620005cd60c083018462000406565b98975050505050505050565b6000620005e5620005f8565b9050620005f382826200080a565b919050565b6000604051905090565b600067ffffffffffffffff82111562000620576200061f6200086f565b5b6200062b82620008b2565b9050602081019050919050565b6000819050602082019050919050565b600081519050919050565b600081519050919050565b6000602082019050919050565b600082825260208201905092915050565b600082825260208201905092915050565b60006200069a8262000793565b9150620006a78362000793565b9250827fffffffffffffffffffffffffffffffffffffffffffffffffffffffffffffffff03821115620006df57620006de62000840565b5b828201905092915050565b6000620006f78262000793565b9150620007048362000793565b9250817fffffffffffffffffffffffffffffffffffffffffffffffffffffffffffffffff048311821515161562000740576200073f62000840565b5b828202905092915050565b6000620007588262000773565b9050919050565b60006200076c8262000773565b9050919050565b600073ffffffffffffffffffffffffffffffffffffffff82169050919050565b6000819050919050565b6000620007aa82620007b1565b9050919050565b6000620007be8262000773565b9050919050565b82818337600083830152505050565b60005b83811015620007f4578082015181840152602081019050620007d7565b8381111562000804576000848401525b50505050565b6200081582620008b2565b810181811067ffffffffffffffff821117156200083757620008366200086f565b5b80604052505050565b7f4e487b7100000000000000000000000000000000000000000000000000000000600052601160045260246000fd5b7f4e487b7100000000000000000000000000000000000000000000000000000000600052604160045260246000fd5b600080fd5b600080fd5b600080fd5b600080fd5b6000601f19601f8301169050919050565b620008ce816200074b565b8114620008da57600080fd5b50565b620008e88162000793565b8114620008f457600080fd5b5056fe60806040526000600860146101000a81548160ff021916908360038111156200002d576200002c6200053d565b5b02179055503480156200003f57600080fd5b50604051620023cc380380620023cc833981810160405281019062000065919062000318565b86600090805190602001906200007d929190620001a5565b5085600160006101000a81548173ffffffffffffffffffffffffffffffffffffffff021916908373ffffffffffffffffffffffffffffffffffffffff160217905550836002819055508460058190555082600660006101000a81548173ffffffffffffffffffffffffffffffffffffffff021916908373ffffffffffffffffffffffffffffffffffffffff16021790555081600760006101000a81548173ffffffffffffffffffffffffffffffffffffffff021916908373ffffffffffffffffffffffffffffffffffffffff16021790555080600860006101000a81548173ffffffffffffffffffffffffffffffffffffffff021916908373ffffffffffffffffffffffffffffffffffffffff1602179055506000600481905550505050505050506200063d565b828054620001b390620004d1565b90600052602060002090601f016020900481019282620001d7576000855562000223565b82601f10620001f257805160ff191683800117855562000223565b8280016001018555821562000223579182015b828111156200022257825182559160200191906001019062000205565b5b50905062000232919062000236565b5090565b5b808211156200025157600081600090555060010162000237565b5090565b60006200026c620002668462000413565b620003ea565b9050828152602081018484840111156200028b576200028a620005cf565b5b620002988482856200049b565b509392505050565b600081519050620002b181620005ef565b92915050565b600081519050620002c88162000609565b92915050565b600082601f830112620002e657620002e5620005ca565b5b8151620002f884826020860162000255565b91505092915050565b600081519050620003128162000623565b92915050565b600080600080600080600060e0888a0312156200033a5762000339620005d9565b5b600088015167ffffffffffffffff8111156200035b576200035a620005d4565b5b620003698a828b01620002ce565b97505060206200037c8a828b01620002b7565b96505060406200038f8a828b0162000301565b9550506060620003a28a828b0162000301565b9450506080620003b58a828b01620002a0565b93505060a0620003c88a828b01620002a0565b92505060c0620003db8a828b01620002a0565b91505092959891949750929550565b6000620003f662000409565b905062000404828262000507565b919050565b6000604051905090565b600067ffffffffffffffff8211156200043157620004306200059b565b5b6200043c82620005de565b9050602081019050919050565b6000620004568262000471565b9050919050565b60006200046a8262000471565b9050919050565b600073ffffffffffffffffffffffffffffffffffffffff82169050919050565b6000819050919050565b60005b83811015620004bb5780820151818401526020810190506200049e565b83811115620004cb576000848401525b50505050565b60006002820490506001821680620004ea57607f821691505b602082108114156200050157620005006200056c565b5b50919050565b6200051282620005de565b810181811067ffffffffffffffff821117156200053457620005336200059b565b5b80604052505050565b7f4e487b7100000000000000000000000000000000000000000000000000000000600052602160045260246000fd5b7f4e487b7100000000000000000000000000000000000000000000000000000000600052602260045260246000fd5b7f4e487b7100000000000000000000000000000000000000000000000000000000600052604160045260246000fd5b600080fd5b600080fd5b600080fd5b600080fd5b6000601f19601f8301169050919050565b620005fa8162000449565b81146200060657600080fd5b50565b62000614816200045d565b81146200062057600080fd5b50565b6200062e8162000491565b81146200063a57600080fd5b50565b611d7f806200064d6000396000f3fe6080604052600436106100f35760003560e01c8063af640d0f1161008a578063ce845d1d11610059578063ce845d1d1461030c578063d7bb99ba14610337578063e849a3e414610341578063fbbf93a01461036c576100f3565b8063af640d0f14610260578063b2d5ae441461028b578063bd66a130146102b6578063c19d93fb146102e1576100f3565b806342e94c90116100c657806342e94c90146101b65780634c4cea5a146101f357806386f325861461021e578063a147ad9b14610235576100f3565b806302d05d3f146100f85780630785001c146101235780630968f2641461014e57806337f944cc1461018b575b600080fd5b34801561010457600080fd5b5061010d61039c565b60405161011a91906115a7565b60405180910390f35b34801561012f57600080fd5b506101386103c2565b60405161014591906117de565b60405180910390f35b34801561015a57600080fd5b50610175600480360381019061017091906112ec565b6103c8565b60405161018291906115f9565b60405180910390f35b34801561019757600080fd5b506101a06105d1565b6040516101ad91906117de565b60405180910390f35b3480156101c257600080fd5b506101dd60048036038101906101d891906112bf565b6105d7565b6040516101ea91906117de565b60405180910390f35b3480156101ff57600080fd5b506102086105ef565b60405161021591906117de565b60405180910390f35b34801561022a57600080fd5b506102336105f5565b005b34801561024157600080fd5b5061024a610672565b6040516102579190611571565b60405180910390f35b34801561026c57600080fd5b50610275610698565b6040516102829190611674565b60405180910390f35b34801561029757600080fd5b506102a0610726565b6040516102ad91906115f9565b60405180910390f35b3480156102c257600080fd5b506102cb6108ea565b6040516102d89190611571565b60405180910390f35b3480156102ed57600080fd5b506102f6610910565b6040516103039190611659565b60405180910390f35b34801561031857600080fd5b50610321610923565b60405161032e91906117de565b60405180910390f35b61033f610929565b005b34801561034d57600080fd5b50610356610abd565b6040516103639190611571565b60405180910390f35b34801561037857600080fd5b50610381610ae3565b60405161039396959493929190611696565b60405180910390f35b600160009054906101000a900473ffffffffffffffffffffffffffffffffffffffff1681565b60025481565b600060028060038111156103df576103de611ab5565b5b600860149054906101000a900460ff16600381111561040157610400611ab5565b5b1461040b57600080fd5b610413610bc7565b610452576040517f08c379a0000000000000000000000000000000000000000000000000000000008152600401610449906117be565b60405180910390fd5b61045b83610bd6565b61049a576040517f08c379a00000000000000000000000000000000000000000000000000000000081526004016104919061179e565b60405180910390fd5b600060045490506000600481905550600160009054906101000a900473ffffffffffffffffffffffffffffffffffffffff1673ffffffffffffffffffffffffffffffffffffffff166108fc829081150290604051600060405180830381858888f1935050505015610593576003600860146101000a81548160ff0219169083600381111561052b5761052a611ab5565b5b02179055507f2f256415efc8561af8db667cb242964b19be7380f379ccdafaa0e54a6f6b7069600160009054906101000a900473ffffffffffffffffffffffffffffffffffffffff16604051610581919061158c565b60405180910390a160019250506105cb565b806004819055506002600860146101000a81548160ff021916908360038111156105c0576105bf611ab5565b5b021790555060009250505b50919050565b60055481565b60096020528060005260406000206000915090505481565b60035481565b6105fd610bc7565b15610632576002600860146101000a81548160ff0219169083600381111561062857610627611ab5565b5b0217905550610669565b600554421115610668576001600860146101000a81548160ff0219169083600381111561066257610661611ab5565b5b02179055505b5b42600381905550565b600860009054906101000a900473ffffffffffffffffffffffffffffffffffffffff1681565b600080546106a590611a23565b80601f01602080910402602001604051908101604052809291908181526020018280546106d190611a23565b801561071e5780601f106106f35761010080835404028352916020019161071e565b820191906000526020600020905b81548152906001019060200180831161070157829003601f168201915b505050505081565b6000600180600381111561073d5761073c611ab5565b5b600860149054906101000a900460ff16600381111561075f5761075e611ab5565b5b1461076957600080fd5b6000600960003373ffffffffffffffffffffffffffffffffffffffff1673ffffffffffffffffffffffffffffffffffffffff16815260200190815260200160002054116107b557600080fd5b6000600960003373ffffffffffffffffffffffffffffffffffffffff1673ffffffffffffffffffffffffffffffffffffffff1681526020019081526020016000205490506000600960003373ffffffffffffffffffffffffffffffffffffffff1673ffffffffffffffffffffffffffffffffffffffff168152602001908152602001600020819055503373ffffffffffffffffffffffffffffffffffffffff166108fc829081150290604051600060405180830381858888f193505050506108c55780600960003373ffffffffffffffffffffffffffffffffffffffff1673ffffffffffffffffffffffffffffffffffffffff1681526020019081526020016000208190555060009250506108e6565b6108da81600454610c6b90919063ffffffff16565b60048190555060019250505b5090565b600660009054906101000a900473ffffffffffffffffffffffffffffffffffffffff1681565b600860149054906101000a900460ff1681565b60045481565b600080600381111561093e5761093d611ab5565b5b600860149054906101000a900460ff1660038111156109605761095f611ab5565b5b1461096a57600080fd5b600160009054906101000a900473ffffffffffffffffffffffffffffffffffffffff1673ffffffffffffffffffffffffffffffffffffffff163373ffffffffffffffffffffffffffffffffffffffff1614156109c557600080fd5b610a1734600960003373ffffffffffffffffffffffffffffffffffffffff1673ffffffffffffffffffffffffffffffffffffffff16815260200190815260200160002054610c8190919063ffffffff16565b600960003373ffffffffffffffffffffffffffffffffffffffff1673ffffffffffffffffffffffffffffffffffffffff16815260200190815260200160002081905550610a6f34600454610c8190919063ffffffff16565b6004819055507f5cdc4ab8d637538ead6cc1904d4160343656c8c82bd266635cfd31ac008fffe03334600454604051610aaa939291906115c2565b60405180910390a1610aba6105f5565b50565b600760009054906101000a900473ffffffffffffffffffffffffffffffffffffffff1681565b60606000806000806000808054610af990611a23565b80601f0160208091040260200160405190810160405280929190818152602001828054610b2590611a23565b8015610b725780601f10610b4757610100808354040283529160200191610b72565b820191906000526020600020905b815481529060010190602001808311610b5557829003601f168201915b50505050509550600160009054906101000a900473ffffffffffffffffffffffffffffffffffffffff1694506005549350600860149054906101000a900460ff16925060045491506002549050909192939495565b60006002546004541015905090565b6000806000604051602001610beb919061155a565b6040516020818303038152906040528051906020012090506000610c0f8285610c97565b90506000339050610c208282610d46565b610c5f576040517f08c379a0000000000000000000000000000000000000000000000000000000008152600401610c569061177e565b60405180910390fd5b60019350505050919050565b60008183610c7991906118e1565b905092915050565b60008183610c8f919061188b565b905092915050565b6000604182511415610cd65760008060006020850151925060408501519150606085015160001a9050610ccc86828585611065565b9350505050610d40565b604082511415610d05576000806020840151915060408401519050610cfc8583836111f0565b92505050610d40565b6040517f08c379a0000000000000000000000000000000000000000000000000000000008152600401610d379061171e565b60405180910390fd5b92915050565b6000600660009054906101000a900473ffffffffffffffffffffffffffffffffffffffff1673ffffffffffffffffffffffffffffffffffffffff168373ffffffffffffffffffffffffffffffffffffffff161415610e4e57600760009054906101000a900473ffffffffffffffffffffffffffffffffffffffff1673ffffffffffffffffffffffffffffffffffffffff168273ffffffffffffffffffffffffffffffffffffffff161480610e475750600860009054906101000a900473ffffffffffffffffffffffffffffffffffffffff1673ffffffffffffffffffffffffffffffffffffffff168273ffffffffffffffffffffffffffffffffffffffff16145b905061105f565b600760009054906101000a900473ffffffffffffffffffffffffffffffffffffffff1673ffffffffffffffffffffffffffffffffffffffff168373ffffffffffffffffffffffffffffffffffffffff161415610f5457600660009054906101000a900473ffffffffffffffffffffffffffffffffffffffff1673ffffffffffffffffffffffffffffffffffffffff168273ffffffffffffffffffffffffffffffffffffffff161480610f4d5750600860009054906101000a900473ffffffffffffffffffffffffffffffffffffffff1673ffffffffffffffffffffffffffffffffffffffff168273ffffffffffffffffffffffffffffffffffffffff16145b905061105f565b600860009054906101000a900473ffffffffffffffffffffffffffffffffffffffff1673ffffffffffffffffffffffffffffffffffffffff168373ffffffffffffffffffffffffffffffffffffffff16141561105a57600660009054906101000a900473ffffffffffffffffffffffffffffffffffffffff1673ffffffffffffffffffffffffffffffffffffffff168273ffffffffffffffffffffffffffffffffffffffff1614806110535750600760009054906101000a900473ffffffffffffffffffffffffffffffffffffffff1673ffffffffffffffffffffffffffffffffffffffff168273ffffffffffffffffffffffffffffffffffffffff16145b905061105f565b600090505b92915050565b60007f7fffffffffffffffffffffffffffffff5d576e7357a4501ddfe92f46681b20a08260001c11156110cd576040517f08c379a00000000000000000000000000000000000000000000000000000000081526004016110c49061173e565b60405180910390fd5b601b8460ff1614806110e25750601c8460ff16145b611121576040517f08c379a00000000000000000000000000000000000000000000000000000000081526004016111189061175e565b60405180910390fd5b6000600186868686604051600081526020016040526040516111469493929190611614565b6020604051602081039080840390855afa158015611168573d6000803e3d6000fd5b505050602060405103519050600073ffffffffffffffffffffffffffffffffffffffff168173ffffffffffffffffffffffffffffffffffffffff1614156111e4576040517f08c379a00000000000000000000000000000000000000000000000000000000081526004016111db906116fe565b60405180910390fd5b80915050949350505050565b60008060007f7fffffffffffffffffffffffffffffffffffffffffffffffffffffffffffffff84169150601b8460ff1c01905061122f86828785611065565b925050509392505050565b600061124d6112488461181e565b6117f9565b90508281526020810184848401111561126957611268611b47565b5b6112748482856119e1565b509392505050565b60008135905061128b81611d32565b92915050565b600082601f8301126112a6576112a5611b42565b5b81356112b684826020860161123a565b91505092915050565b6000602082840312156112d5576112d4611b51565b5b60006112e38482850161127c565b91505092915050565b60006020828403121561130257611301611b51565b5b600082013567ffffffffffffffff8111156113205761131f611b4c565b5b61132c84828501611291565b91505092915050565b61133e81611999565b82525050565b61134d81611927565b82525050565b61135c81611915565b82525050565b61136b81611939565b82525050565b61137a81611945565b82525050565b611389816119ab565b82525050565b600061139a82611864565b6113a4818561186f565b93506113b48185602086016119f0565b6113bd81611b56565b840191505092915050565b600081546113d581611a23565b6113df8186611880565b945060018216600081146113fa576001811461140b5761143e565b60ff1983168652818601935061143e565b6114148561184f565b60005b8381101561143657815481890152600182019150602081019050611417565b838801955050505b50505092915050565b600061145460188361186f565b915061145f82611b67565b602082019050919050565b6000611477601f8361186f565b915061148282611b90565b602082019050919050565b600061149a60228361186f565b91506114a582611bb9565b604082019050919050565b60006114bd60228361186f565b91506114c882611c08565b604082019050919050565b60006114e0602a8361186f565b91506114eb82611c57565b604082019050919050565b600061150360258361186f565b915061150e82611ca6565b604082019050919050565b6000611526601b8361186f565b915061153182611cf5565b602082019050919050565b61154581611982565b82525050565b6115548161198c565b82525050565b600061156682846113c8565b915081905092915050565b60006020820190506115866000830184611353565b92915050565b60006020820190506115a16000830184611335565b92915050565b60006020820190506115bc6000830184611344565b92915050565b60006060820190506115d76000830186611353565b6115e4602083018561153c565b6115f1604083018461153c565b949350505050565b600060208201905061160e6000830184611362565b92915050565b60006080820190506116296000830187611371565b611636602083018661154b565b6116436040830185611371565b6116506060830184611371565b95945050505050565b600060208201905061166e6000830184611380565b92915050565b6000602082019050818103600083015261168e818461138f565b905092915050565b600060c08201905081810360008301526116b0818961138f565b90506116bf6020830188611344565b6116cc604083018761153c565b6116d96060830186611380565b6116e6608083018561153c565b6116f360a083018461153c565b979650505050505050565b6000602082019050818103600083015261171781611447565b9050919050565b600060208201905081810360008301526117378161146a565b9050919050565b600060208201905081810360008301526117578161148d565b9050919050565b60006020820190508181036000830152611777816114b0565b9050919050565b60006020820190508181036000830152611797816114d3565b9050919050565b600060208201905081810360008301526117b7816114f6565b9050919050565b600060208201905081810360008301526117d781611519565b9050919050565b60006020820190506117f3600083018461153c565b92915050565b6000611803611814565b905061180f8282611a55565b919050565b6000604051905090565b600067ffffffffffffffff82111561183957611838611b13565b5b61184282611b56565b9050602081019050919050565b60008190508160005260206000209050919050565b600081519050919050565b600082825260208201905092915050565b600081905092915050565b600061189682611982565b91506118a183611982565b9250827fffffffffffffffffffffffffffffffffffffffffffffffffffffffffffffffff038211156118d6576118d5611a86565b5b828201905092915050565b60006118ec82611982565b91506118f783611982565b92508282101561190a57611909611a86565b5b828203905092915050565b600061192082611962565b9050919050565b600061193282611962565b9050919050565b60008115159050919050565b6000819050919050565b600081905061195d82611d1e565b919050565b600073ffffffffffffffffffffffffffffffffffffffff82169050919050565b6000819050919050565b600060ff82169050919050565b60006119a4826119bd565b9050919050565b60006119b68261194f565b9050919050565b60006119c8826119cf565b9050919050565b60006119da82611962565b9050919050565b82818337600083830152505050565b60005b83811015611a0e5780820151818401526020810190506119f3565b83811115611a1d576000848401525b50505050565b60006002820490506001821680611a3b57607f821691505b60208210811415611a4f57611a4e611ae4565b5b50919050565b611a5e82611b56565b810181811067ffffffffffffffff82111715611a7d57611a7c611b13565b5b80604052505050565b7f4e487b7100000000000000000000000000000000000000000000000000000000600052601160045260246000fd5b7f4e487b7100000000000000000000000000000000000000000000000000000000600052602160045260246000fd5b7f4e487b7100000000000000000000000000000000000000000000000000000000600052602260045260246000fd5b7f4e487b7100000000000000000000000000000000000000000000000000000000600052604160045260246000fd5b600080fd5b600080fd5b600080fd5b600080fd5b6000601f19601f8301169050919050565b7f45434453413a20696e76616c6964207369676e61747572650000000000000000600082015250565b7f45434453413a20696e76616c6964207369676e6174757265206c656e67746800600082015250565b7f45434453413a20696e76616c6964207369676e6174757265202773272076616c60008201527f7565000000000000000000000000000000000000000000000000000000000000602082015250565b7f45434453413a20696e76616c6964207369676e6174757265202776272076616c60008201527f7565000000000000000000000000000000000000000000000000000000000000602082015250565b7f4f6e65206f6620746865203220676976656e207369676e61747572657320697360008201527f20696e636f727265637400000000000000000000000000000000000000000000602082015250565b7f546865207472616e73616374696f6e20686173207369676e617475726573206960008201527f7373756573000000000000000000000000000000000000000000000000000000602082015250565b7f46756e64696e67206973206e6f7420636f6d706c657465207965740000000000600082015250565b60048110611d2f57611d2e611ab5565b5b50565b611d3b81611915565b8114611d4657600080fd5b5056fea2646970667358221220752597825725c04d095d335aa5f22a5b80d545be626b5b5a73384130c8436c5264736f6c63430008060033a264697066735822122094057a6e10abe3cfd25e577b39361a2d01040a67109b0f8789f44ef25fa5360964736f6c63430008060033",
  "immutableReferences": {},
  "source": "// SPDX-License-Identifier: MIT\npragma solidity 0.8.6;\n\nimport './SafeMath.sol';\nimport './ECDSA.sol';\n\n\ncontract Crowdfunding {\n    using SafeMath for uint256;\n\n    // List of existing projects\n    Project[] private projects;\n\n    // Event that will be emitted whenever a new project is started\n    event ProjectStarted(\n        address contractAddress,\n        address projectStarter,\n        uint256 deadline,\n        uint256 goalAmount\n    );\n\n    function startProject(\n        string memory projectId,\n        uint durationInDays,\n        uint amountToRaise,\n        address pk1,\n        address pk2,\n        address pk3\n    ) external {\n        uint raiseUntil = block.timestamp.add(durationInDays.mul(1 days));\n        Project newProject = new Project(projectId, payable(msg.sender), raiseUntil, amountToRaise, pk1, pk2, pk3);\n        projects.push(newProject);\n        emit ProjectStarted(\n            address(newProject),\n            msg.sender,\n            raiseUntil,\n            amountToRaise\n        );\n    }                                                                                                                                   \n\n    /** @dev Function to get all projects' contract addresses.\n      * @return A list of all projects' contract addreses\n      */\n    function returnAllProjects() external view returns(Project[] memory){\n        return projects;\n    }\n}\n\n\ncontract Project {\n    using SafeMath for uint256;\n    \n    // Data structures\n    enum State {\n        Fundraising,\n        Expired,\n        Successful,\n        Withdrawn\n    }\n\n    // State variables\n    string public id;\n    address payable public creator;\n    uint public amountGoal; // required to reach at least this much, else everyone gets refund\n    uint public completeAt;\n    uint256 public currentBalance;\n    uint public raiseBy;\n    address public pk1;\n    address public pk2;\n    address public pk3;\n    State public state = State.Fundraising; // initialize on create\n    mapping (address => uint) public contributions;\n\n    // Event that will be emitted whenever funding will be received\n    event FundingReceived(address contributor, uint amount, uint currentTotal);\n    // Event that will be emitted whenever the project starter has received the funds\n    event CreatorPaid(address recipient);\n\n    // Modifier to check current state\n    modifier inState(State _state) {\n        require(state == _state);\n        _;\n    }\n\n    // Modifier to check if the function caller is the project creator\n    modifier isCreator() {\n        require(msg.sender == creator);\n        _;\n    }\n\n    constructor\n    (\n        string memory projectId,\n        address payable projectStarter,\n        uint fundRaisingDeadline,\n        uint goalAmount,\n        address projectPK1,\n        address projectPK2,\n        address projectPK3\n    ) {\n        id = projectId;\n        creator = projectStarter;\n        amountGoal = goalAmount;\n        raiseBy = fundRaisingDeadline;\n        pk1 = projectPK1;\n        pk2 = projectPK2;\n        pk3 = projectPK3;\n        currentBalance = 0;\n    }\n\n    /** @dev Function to fund a certain project.\n      */\n    function contribute() external inState(State.Fundraising) payable {\n        require(msg.sender != creator);\n        contributions[msg.sender] = contributions[msg.sender].add(msg.value);\n        currentBalance = currentBalance.add(msg.value);\n        emit FundingReceived(msg.sender, msg.value, currentBalance);\n        checkIfFundingCompleteOrExpired();\n    }\n\n    /** @dev Function to change the project state depending on conditions.\n      */\n    function checkIfFundingCompleteOrExpired() public {\n        if (fundingCompleted()) {\n            state = State.Successful;\n        } else if (block.timestamp > raiseBy)  {\n            state = State.Expired;\n        }\n        completeAt = block.timestamp;\n    }\n    \n    function fundingCompleted() internal view returns (bool) {\n        return currentBalance >= amountGoal;\n    }\n    \n     /** @dev Withdraw funds. signature must be a valid signature on the project id by on of the pk's\n      */\n    function withdraw(bytes memory signature) public inState(State.Successful) returns (bool) {\n        // require(msg.sender == creator, \"withdraw is only available for the creator of the project\");\n        require(fundingCompleted(), \"Funding is not complete yet\");\n        require(isSignedProperlyForWithdraw(signature), \"The transaction has signatures issues\");\n        uint256 totalRaised = currentBalance;\n        currentBalance = 0;\n\n        if (creator.send(totalRaised)) {\n            state = State.Withdrawn;\n            emit CreatorPaid(creator);\n            return true;\n        } else {\n            currentBalance = totalRaised;\n            state = State.Successful;\n        }\n\n        return false;\n    }\n    \n    function isSignedProperlyForWithdraw(bytes memory signature) internal view returns (bool) {\n        bytes32 hash = keccak256(abi.encodePacked(id));\n        address addressThatSigned = ECDSA.recover(hash, signature);\n        address transactionSignature = msg.sender;\n\n        // require(isAddressInOneOfThePks(addressThatSigned), \"internal signature is incorrect\");\n        // require(isAddressInOneOfThePks(msg.sender), \"external signature is incorrect\");\n        require(isAddressesInTwoOfThePks(addressThatSigned, transactionSignature), \"One of the 2 given signatures is incorrect\");\n        return true;\n    }\n    \n    function isAddressesInTwoOfThePks(address a, address b) internal view returns (bool) {\n        if (a == pk1) {\n            return (b == pk2 || b == pk3);\n        } else if (a == pk2) {\n            return (b == pk1 || b == pk3);\n        } else if (a == pk3) {\n            return (b == pk1 || b == pk2);\n        }\n        return false;\n    }\n\n    /** @dev Function to retrieve donated amount when a project expires.\n      */\n    function getRefund() public inState(State.Expired) returns (bool) {\n        require(contributions[msg.sender] > 0);\n\n        uint amountToRefund = contributions[msg.sender];\n        contributions[msg.sender] = 0;\n\n        if (!payable(msg.sender).send(amountToRefund)) {\n            contributions[msg.sender] = amountToRefund;\n            return false;\n        } else {\n            currentBalance = currentBalance.sub(amountToRefund);\n        }\n\n        return true;\n    }\n\n    function getDetails() public view returns \n    (\n        string memory projectId,\n        address payable projectStarter,\n        uint256 deadline,\n        State currentState,\n        uint256 currentAmount,\n        uint256 goalAmount\n    ) {\n        projectId = id;\n        projectStarter = creator;\n        deadline = raiseBy;\n        currentState = state;\n        currentAmount = currentBalance;\n        goalAmount = amountGoal;\n    }\n}",
  "sourcePath": "/home/user/dev/smart-fund/smart-contract/contracts/Crowdfunding.sol",
  "compiler": {
    "name": "solc",
    "version": "0.8.6+commit.11564f7e.Emscripten.clang"
  },
  "schemaVersion": "3.4.1",
  "updatedAt": "2021-07-20T16:09:18.292Z",
  "networkType": "ethereum",
  "devdoc": {
    "kind": "dev",
    "methods": {
      "returnAllProjects()": {
        "details": "Function to get all projects' contract addresses.",
        "returns": {
          "_0": "A list of all projects' contract addreses"
        }
      }
    },
    "version": 1
  },
  "userdoc": {
    "kind": "user",
    "methods": {},
    "version": 1
  }
}